:100000000C9472000C947E000C947E000C947E0084
:100010000C947E000C947E000C947E000C947E0068
:100020000C947E000C947E000C947E000C947E0058
:100030000C947E000C947E000C947E000C947E0048
:100040000C947E000C947E000C947E000C947E0038
:100050000C947E000C947E000C947E000C947E0028
:100060000C947E000C947E000C947E000C947E0018
:100070000C947E000C947E000C947E000C947E0008
:100080000C947E000C947E000C947E000C947E00F8
:100090000C947E000C947E000C947E000C947E00E8
:1000A0000C947E000C947E000C947E000C947E00D8
:1000B0000C947E000C947E000C947E000C947E00C8
:1000C0000C947E000C947E000C947E000C947E00B8
:1000D0000C947E000C947E000C947E000C947E00A8
:1000E0000C947E0011241FBECFEFD1E2DEBFCDBF46
:1000F00000E00CBF0E9480000C940A010C940000E8
:100100008FEF8DB98DB188628DB9809101018061C9
:10011000809301019FEF709A2FEF39E688E121501B
:1001200030408040E1F700C00000779A2FEF39E6B9
:1001300088E1215030408040E1F700C00000709815
:100140002FEF39E688E1215030408040E1F700C0D0
:1001500000009EB92FEF39E688E121503040804001
:10016000E1F700C000001EB82FEF39E688E121500A
:1001700030408040E1F700C00000749A75982FEF7E
:1001800039E688E1215030408040E1F700C00000AE
:100190007498759A2FEF39E688E1215030408040FD
:1001A000E1F700C00000749A2FEF33ED80E3215097
:1001B00030408040E1F700C0000074982FEF33ED2D
:1001C00080E3215030408040E1F700C000008EB154
:1001D00088628EB9809102018061809302012FEFC5
:1001E00039E688E1215030408040E1F700C000004E
:1001F0008EB1877D8EB9809102018F7E809302013E
:100200002FEF39E688E1215030408040E1F700C00F
:08021000000081CFF894FFCF3C
:00000001FF
