:100000000C9472000C947E000C947E000C947E0084
:100010000C947E000C947E000C947E000C947E0068
:100020000C947E000C947E000C947E000C947E0058
:100030000C947E000C947E000C947E000C947E0048
:100040000C947E000C947E000C947E000C947E0038
:100050000C947E000C947E000C947E000C947E0028
:100060000C947E000C947E000C947E000C947E0018
:100070000C947E000C947E000C947E000C947E0008
:100080000C947E000C947E000C947E000C947E00F8
:100090000C947E000C947E000C947E000C947E00E8
:1000A0000C947E000C947E000C947E000C947E00D8
:1000B0000C947E000C947E000C947E000C947E00C8
:1000C0000C947E000C947E000C947E000C947E00B8
:1000D0000C947E000C947E000C947E000C947E00A8
:1000E0000C947E0011241FBECFEFD1E2DEBFCDBF46
:1000F00000E00CBF0E9480000C94C1000C94000032
:100100008FEF8DB9709A2FEF39E698E1215030408A
:100110009040E1F700C0000070982FEF39E698E1B9
:10012000215030409040E1F700C000008EB92FEF21
:1001300039E698E1215030409040E1F700C00000DE
:100140001EB82FEF39E698E1215030409040E1F79A
:1001500000C00000749A75982FEF39E698E121509D
:1001600030409040E1F700C000007498759A2FEF7E
:1001700039E698E1215030409040E1F700C000009E
:06018000C1CFF894FFCF8F
:00000001FF
